{
    "_format": "hh-sol-artifact-1",
    "contractName": "RSVP",
    "sourceName": "contracts/RSVP.sol",
    "abi": [
        {
            "anonymous": false,
            "inputs": [
                {
                    "indexed": false,
                    "internalType": "bytes32",
                    "name": "eventID",
                    "type": "bytes32"
                },
                {
                    "indexed": false,
                    "internalType": "address",
                    "name": "attendeeAddress",
                    "type": "address"
                }
            ],
            "name": "ConfirmedAttendee",
            "type": "event"
        },
        {
            "anonymous": false,
            "inputs": [
                {
                    "indexed": false,
                    "internalType": "bytes32",
                    "name": "eventID",
                    "type": "bytes32"
                }
            ],
            "name": "DepositsPaidOut",
            "type": "event"
        },
        {
            "anonymous": false,
            "inputs": [
                {
                    "indexed": false,
                    "internalType": "bytes32",
                    "name": "eventID",
                    "type": "bytes32"
                },
                {
                    "indexed": false,
                    "internalType": "address",
                    "name": "creatorAddress",
                    "type": "address"
                },
                {
                    "indexed": false,
                    "internalType": "uint256",
                    "name": "eventTimestamp",
                    "type": "uint256"
                },
                {
                    "indexed": false,
                    "internalType": "uint256",
                    "name": "maxCapacity",
                    "type": "uint256"
                },
                {
                    "indexed": false,
                    "internalType": "uint256",
                    "name": "deposit",
                    "type": "uint256"
                },
                {
                    "indexed": false,
                    "internalType": "string",
                    "name": "eventDataCID",
                    "type": "string"
                }
            ],
            "name": "NewEventCreated",
            "type": "event"
        },
        {
            "anonymous": false,
            "inputs": [
                {
                    "indexed": false,
                    "internalType": "bytes32",
                    "name": "eventID",
                    "type": "bytes32"
                },
                {
                    "indexed": false,
                    "internalType": "address",
                    "name": "attendeeAddress",
                    "type": "address"
                }
            ],
            "name": "NewRSVP",
            "type": "event"
        },
        {
            "inputs": [
                {
                    "internalType": "bytes32",
                    "name": "eventId",
                    "type": "bytes32"
                }
            ],
            "name": "confirmAllAttendees",
            "outputs": [],
            "stateMutability": "nonpayable",
            "type": "function"
        },
        {
            "inputs": [
                {
                    "internalType": "bytes32",
                    "name": "eventId",
                    "type": "bytes32"
                },
                {
                    "internalType": "address",
                    "name": "attendee",
                    "type": "address"
                }
            ],
            "name": "confirmAttendee",
            "outputs": [],
            "stateMutability": "nonpayable",
            "type": "function"
        },
        {
            "inputs": [
                {
                    "internalType": "uint256",
                    "name": "eventTimestamp",
                    "type": "uint256"
                },
                {
                    "internalType": "uint256",
                    "name": "deposit",
                    "type": "uint256"
                },
                {
                    "internalType": "uint256",
                    "name": "maxCapacity",
                    "type": "uint256"
                },
                {
                    "internalType": "string",
                    "name": "eventDataCID",
                    "type": "string"
                }
            ],
            "name": "createNewEventI",
            "outputs": [],
            "stateMutability": "nonpayable",
            "type": "function"
        },
        {
            "inputs": [
                {
                    "internalType": "bytes32",
                    "name": "eventId",
                    "type": "bytes32"
                }
            ],
            "name": "createRSVPS",
            "outputs": [],
            "stateMutability": "payable",
            "type": "function"
        },
        {
            "inputs": [
                {
                    "internalType": "bytes32",
                    "name": "",
                    "type": "bytes32"
                }
            ],
            "name": "idToEvent",
            "outputs": [
                {
                    "internalType": "bytes32",
                    "name": "eventId",
                    "type": "bytes32"
                },
                {
                    "internalType": "string",
                    "name": "eventDataCID",
                    "type": "string"
                },
                {
                    "internalType": "address",
                    "name": "eventOwner",
                    "type": "address"
                },
                {
                    "internalType": "uint256",
                    "name": "eventTimestamp",
                    "type": "uint256"
                },
                {
                    "internalType": "uint256",
                    "name": "deposit",
                    "type": "uint256"
                },
                {
                    "internalType": "uint256",
                    "name": "maxCapacity",
                    "type": "uint256"
                },
                {
                    "internalType": "bool",
                    "name": "paidOut",
                    "type": "bool"
                }
            ],
            "stateMutability": "view",
            "type": "function"
        },
        {
            "inputs": [
                {
                    "internalType": "bytes32",
                    "name": "eventId",
                    "type": "bytes32"
                }
            ],
            "name": "withdrawUnclaimedDeposits",
            "outputs": [],
            "stateMutability": "nonpayable",
            "type": "function"
        }
    ],
    "bytecode": "0x608060405234801561001057600080fd5b50612139806100206000396000f3fe6080604052600436106100555760003560e01c806330bb08991461005a5780636c20a29b146100765780636dcdf2cd1461009f57806379747571146100c8578063909ef021146100f1578063acdbe01214610134575b600080fd5b610074600480360381019061006f91906114d0565b61015d565b005b34801561008257600080fd5b5061009d60048036038101906100989190611598565b61038e565b005b3480156100ab57600080fd5b506100c660048036038101906100c1919061167e565b6105aa565b005b3480156100d457600080fd5b506100ef60048036038101906100ea91906114d0565b610a83565b005b3480156100fd57600080fd5b50610118600480360381019061011391906114d0565b610f3b565b60405161012b979695949392919061179f565b60405180910390f35b34801561014057600080fd5b5061015b600480360381019061015691906114d0565b611032565b005b60008060008381526020019081526020016000209050806004015434146101b9576040517f08c379a00000000000000000000000000000000000000000000000000000000081526004016101b090611861565b60405180910390fd5b8060030154421115610200576040517f08c379a00000000000000000000000000000000000000000000000000000000081526004016101f7906118cd565b60405180910390fd5b806005015481600601805490501061021757600080fd5b60005b81600601805490508110156102eb573373ffffffffffffffffffffffffffffffffffffffff16826006018281548110610256576102556118ed565b5b9060005260206000200160009054906101000a900473ffffffffffffffffffffffffffffffffffffffff1673ffffffffffffffffffffffffffffffffffffffff1614156102d8576040517f08c379a00000000000000000000000000000000000000000000000000000000081526004016102cf90611968565b60405180910390fd5b80806102e3906119b7565b91505061021a565b5080600601339080600181540180825580915050600190039060005260206000200160009091909190916101000a81548173ffffffffffffffffffffffffffffffffffffffff021916908373ffffffffffffffffffffffffffffffffffffffff1602179055507fb79f4240bbdd272d98e02a5db7f0cf156e5fc000961c517670a26eeeec63ed908233604051610382929190611a00565b60405180910390a15050565b600033308787876040516020016103a9959493929190611a92565b60405160208183030381529060405280519060200120905060608060405180610120016040528084815260200186868080601f016020809104026020016040519081016040528093929190818152602001838380828437600081840152601f19601f8201169050808301925050505050505081526020013373ffffffffffffffffffffffffffffffffffffffff16815260200189815260200188815260200187815260200183815260200182815260200160001515815250600080858152602001908152602001600020600082015181600001556020820151816001019080519060200190610499929190611363565b5060408201518160020160006101000a81548173ffffffffffffffffffffffffffffffffffffffff021916908373ffffffffffffffffffffffffffffffffffffffff160217905550606082015181600301556080820151816004015560a0820151816005015560c082015181600601908051906020019061051b9291906113e9565b5060e08201518160070190805190602001906105389291906113e9565b506101008201518160080160006101000a81548160ff0219169083151502179055509050507f2553138c3f9c9008f266dbdbe9fc64f5b71e098d06ef714a190a65a8b9fc6bf383338a898b8a8a6040516105989796959493929190611b2d565b60405180910390a15050505050505050565b600080600084815260200190815260200160002090508060020160009054906101000a900473ffffffffffffffffffffffffffffffffffffffff1673ffffffffffffffffffffffffffffffffffffffff163373ffffffffffffffffffffffffffffffffffffffff1614610652576040517f08c379a000000000000000000000000000000000000000000000000000000000815260040161064990611be3565b60405180910390fd5b600080600090505b82600601805490508160ff16101561073d578373ffffffffffffffffffffffffffffffffffffffff16836006018260ff168154811061069c5761069b6118ed565b5b9060005260206000200160009054906101000a900473ffffffffffffffffffffffffffffffffffffffff1673ffffffffffffffffffffffffffffffffffffffff16141561072a57826006018160ff16815481106106fc576106fb6118ed565b5b9060005260206000200160009054906101000a900473ffffffffffffffffffffffffffffffffffffffff1691505b808061073590611c10565b91505061065a565b508273ffffffffffffffffffffffffffffffffffffffff168173ffffffffffffffffffffffffffffffffffffffff16146107ac576040517f08c379a00000000000000000000000000000000000000000000000000000000081526004016107a390611c86565b60405180910390fd5b60005b82600701805490508160ff161015610886578373ffffffffffffffffffffffffffffffffffffffff16836007018260ff16815481106107f1576107f06118ed565b5b9060005260206000200160009054906101000a900473ffffffffffffffffffffffffffffffffffffffff1673ffffffffffffffffffffffffffffffffffffffff161415610873576040517f08c379a000000000000000000000000000000000000000000000000000000000815260040161086a90611cf2565b60405180910390fd5b808061087e90611c10565b9150506107af565b50600015158260080160009054906101000a900460ff161515146108df576040517f08c379a00000000000000000000000000000000000000000000000000000000081526004016108d690611d5e565b60405180910390fd5b81600701839080600181540180825580915050600190039060005260206000200160009091909190916101000a81548173ffffffffffffffffffffffffffffffffffffffff021916908373ffffffffffffffffffffffffffffffffffffffff16021790555060008373ffffffffffffffffffffffffffffffffffffffff16836004015460405161096e90611daf565b60006040518083038185875af1925050503d80600081146109ab576040519150601f19603f3d011682016040523d82523d6000602084013e6109b0565b606091505b5050905080610a0357826007018054806109cd576109cc611dc4565b5b6001900381819060005260206000200160006101000a81549073ffffffffffffffffffffffffffffffffffffffff021916905590555b80610a43576040517f08c379a0000000000000000000000000000000000000000000000000000000008152600401610a3a90611e3f565b60405180910390fd5b7ff8d1583a733d83bdd3ef5464129d0a95a36d62b382d31c6d0467a61f4264381b8585604051610a74929190611a00565b60405180910390a15050505050565b60008060008381526020019081526020016000206040518061012001604052908160008201548152602001600182018054610abd90611e8e565b80601f0160208091040260200160405190810160405280929190818152602001828054610ae990611e8e565b8015610b365780601f10610b0b57610100808354040283529160200191610b36565b820191906000526020600020905b815481529060010190602001808311610b1957829003601f168201915b505050505081526020016002820160009054906101000a900473ffffffffffffffffffffffffffffffffffffffff1673ffffffffffffffffffffffffffffffffffffffff1673ffffffffffffffffffffffffffffffffffffffff16815260200160038201548152602001600482015481526020016005820154815260200160068201805480602002602001604051908101604052809291908181526020018280548015610c3857602002820191906000526020600020905b8160009054906101000a900473ffffffffffffffffffffffffffffffffffffffff1673ffffffffffffffffffffffffffffffffffffffff1681526020019060010190808311610bee575b5050505050815260200160078201805480602002602001604051908101604052809291908181526020018280548015610cc657602002820191906000526020600020905b8160009054906101000a900473ffffffffffffffffffffffffffffffffffffffff1673ffffffffffffffffffffffffffffffffffffffff1681526020019060010190808311610c7c575b505050505081526020016008820160009054906101000a900460ff161515151581525050905080610100015115610d32576040517f08c379a0000000000000000000000000000000000000000000000000000000008152600401610d2990611f0c565b60405180910390fd5b62093a808160600151610d459190611f2c565b421015610d87576040517f08c379a0000000000000000000000000000000000000000000000000000000008152600401610d7e90611fce565b60405180910390fd5b806040015173ffffffffffffffffffffffffffffffffffffffff163373ffffffffffffffffffffffffffffffffffffffff1614610df9576040517f08c379a0000000000000000000000000000000000000000000000000000000008152600401610df09061203a565b60405180910390fd5b60008160e00151518260c0015151610e11919061205a565b90506000826080015182610e25919061208e565b905060018361010001901515908115158152505060003373ffffffffffffffffffffffffffffffffffffffff1682604051610e5f90611daf565b60006040518083038185875af1925050503d8060008114610e9c576040519150601f19603f3d011682016040523d82523d6000602084013e610ea1565b606091505b5050905080610ebd576000846101000190151590811515815250505b80610efd576040517f08c379a0000000000000000000000000000000000000000000000000000000008152600401610ef490611e3f565b60405180910390fd5b7f393073ea1365f611c3d2f240c992960d2b99dc81715555d3fc40fc55ba80af9c85604051610f2c91906120e8565b60405180910390a15050505050565b6000602052806000526040600020600091509050806000015490806001018054610f6490611e8e565b80601f0160208091040260200160405190810160405280929190818152602001828054610f9090611e8e565b8015610fdd5780601f10610fb257610100808354040283529160200191610fdd565b820191906000526020600020905b815481529060010190602001808311610fc057829003601f168201915b5050505050908060020160009054906101000a900473ffffffffffffffffffffffffffffffffffffffff16908060030154908060040154908060050154908060080160009054906101000a900460ff16905087565b6000806000838152602001908152602001600020604051806101200160405290816000820154815260200160018201805461106c90611e8e565b80601f016020809104026020016040519081016040528092919081815260200182805461109890611e8e565b80156110e55780601f106110ba576101008083540402835291602001916110e5565b820191906000526020600020905b8154815290600101906020018083116110c857829003601f168201915b505050505081526020016002820160009054906101000a900473ffffffffffffffffffffffffffffffffffffffff1673ffffffffffffffffffffffffffffffffffffffff1673ffffffffffffffffffffffffffffffffffffffff168152602001600382015481526020016004820154815260200160058201548152602001600682018054806020026020016040519081016040528092919081815260200182805480156111e757602002820191906000526020600020905b8160009054906101000a900473ffffffffffffffffffffffffffffffffffffffff1673ffffffffffffffffffffffffffffffffffffffff168152602001906001019080831161119d575b505050505081526020016007820180548060200260200160405190810160405280929190818152602001828054801561127557602002820191906000526020600020905b8160009054906101000a900473ffffffffffffffffffffffffffffffffffffffff1673ffffffffffffffffffffffffffffffffffffffff168152602001906001019080831161122b575b505050505081526020016008820160009054906101000a900460ff1615151515815250509050806040015173ffffffffffffffffffffffffffffffffffffffff163373ffffffffffffffffffffffffffffffffffffffff161461130d576040517f08c379a000000000000000000000000000000000000000000000000000000000815260040161130490611be3565b60405180910390fd5b60005b8160c00151518160ff16101561135e5761134b838360c001518360ff168151811061133e5761133d6118ed565b5b60200260200101516105aa565b808061135690611c10565b915050611310565b505050565b82805461136f90611e8e565b90600052602060002090601f01602090048101928261139157600085556113d8565b82601f106113aa57805160ff19168380011785556113d8565b828001600101855582156113d8579182015b828111156113d75782518255916020019190600101906113bc565b5b5090506113e59190611473565b5090565b828054828255906000526020600020908101928215611462579160200282015b828111156114615782518260006101000a81548173ffffffffffffffffffffffffffffffffffffffff021916908373ffffffffffffffffffffffffffffffffffffffff16021790555091602001919060010190611409565b5b50905061146f9190611473565b5090565b5b8082111561148c576000816000905550600101611474565b5090565b600080fd5b600080fd5b6000819050919050565b6114ad8161149a565b81146114b857600080fd5b50565b6000813590506114ca816114a4565b92915050565b6000602082840312156114e6576114e5611490565b5b60006114f4848285016114bb565b91505092915050565b6000819050919050565b611510816114fd565b811461151b57600080fd5b50565b60008135905061152d81611507565b92915050565b600080fd5b600080fd5b600080fd5b60008083601f84011261155857611557611533565b5b8235905067ffffffffffffffff81111561157557611574611538565b5b6020830191508360018202830111156115915761159061153d565b5b9250929050565b6000806000806000608086880312156115b4576115b3611490565b5b60006115c28882890161151e565b95505060206115d38882890161151e565b94505060406115e48882890161151e565b935050606086013567ffffffffffffffff81111561160557611604611495565b5b61161188828901611542565b92509250509295509295909350565b600073ffffffffffffffffffffffffffffffffffffffff82169050919050565b600061164b82611620565b9050919050565b61165b81611640565b811461166657600080fd5b50565b60008135905061167881611652565b92915050565b6000806040838503121561169557611694611490565b5b60006116a3858286016114bb565b92505060206116b485828601611669565b9150509250929050565b6116c78161149a565b82525050565b600081519050919050565b600082825260208201905092915050565b60005b838110156117075780820151818401526020810190506116ec565b83811115611716576000848401525b50505050565b6000601f19601f8301169050919050565b6000611738826116cd565b61174281856116d8565b93506117528185602086016116e9565b61175b8161171c565b840191505092915050565b61176f81611640565b82525050565b61177e816114fd565b82525050565b60008115159050919050565b61179981611784565b82525050565b600060e0820190506117b4600083018a6116be565b81810360208301526117c6818961172d565b90506117d56040830188611766565b6117e26060830187611775565b6117ef6080830186611775565b6117fc60a0830185611775565b61180960c0830184611790565b98975050505050505050565b7f4e4f5420454e4f554748204445504f5349540000000000000000000000000000600082015250565b600061184b6012836116d8565b915061185682611815565b602082019050919050565b6000602082019050818103600083015261187a8161183e565b9050919050565b7f4556454e5420414c52454144592048415050454e454400000000000000000000600082015250565b60006118b76016836116d8565b91506118c282611881565b602082019050919050565b600060208201905081810360008301526118e6816118aa565b9050919050565b7f4e487b7100000000000000000000000000000000000000000000000000000000600052603260045260246000fd5b7f414c524541445920434f4e4649524d4544000000000000000000000000000000600082015250565b60006119526011836116d8565b915061195d8261191c565b602082019050919050565b6000602082019050818103600083015261198181611945565b9050919050565b7f4e487b7100000000000000000000000000000000000000000000000000000000600052601160045260246000fd5b60006119c2826114fd565b91507fffffffffffffffffffffffffffffffffffffffffffffffffffffffffffffffff8214156119f5576119f4611988565b5b600182019050919050565b6000604082019050611a1560008301856116be565b611a226020830184611766565b9392505050565b60008160601b9050919050565b6000611a4182611a29565b9050919050565b6000611a5382611a36565b9050919050565b611a6b611a6682611640565b611a48565b82525050565b6000819050919050565b611a8c611a87826114fd565b611a71565b82525050565b6000611a9e8288611a5a565b601482019150611aae8287611a5a565b601482019150611abe8286611a7b565b602082019150611ace8285611a7b565b602082019150611ade8284611a7b565b6020820191508190509695505050505050565b82818337600083830152505050565b6000611b0c83856116d8565b9350611b19838584611af1565b611b228361171c565b840190509392505050565b600060c082019050611b42600083018a6116be565b611b4f6020830189611766565b611b5c6040830188611775565b611b696060830187611775565b611b766080830186611775565b81810360a0830152611b89818486611b00565b905098975050505050505050565b7f4e4f5420415554484f52495a4544000000000000000000000000000000000000600082015250565b6000611bcd600e836116d8565b9150611bd882611b97565b602082019050919050565b60006020820190508181036000830152611bfc81611bc0565b9050919050565b600060ff82169050919050565b6000611c1b82611c03565b915060ff821415611c2f57611c2e611988565b5b600182019050919050565b7f4e4f205253565020544f20434f4e4649524d0000000000000000000000000000600082015250565b6000611c706012836116d8565b9150611c7b82611c3a565b602082019050919050565b60006020820190508181036000830152611c9f81611c63565b9050919050565b7f414c524541445920434c41494d45440000000000000000000000000000000000600082015250565b6000611cdc600f836116d8565b9150611ce782611ca6565b602082019050919050565b60006020820190508181036000830152611d0b81611ccf565b9050919050565b7f414c52454144592050414944204f555400000000000000000000000000000000600082015250565b6000611d486010836116d8565b9150611d5382611d12565b602082019050919050565b60006020820190508181036000830152611d7781611d3b565b9050919050565b600081905092915050565b50565b6000611d99600083611d7e565b9150611da482611d89565b600082019050919050565b6000611dba82611d8c565b9150819050919050565b7f4e487b7100000000000000000000000000000000000000000000000000000000600052603160045260246000fd5b7f4661696c656420746f2073656e64204574686572000000000000000000000000600082015250565b6000611e296014836116d8565b9150611e3482611df3565b602082019050919050565b60006020820190508181036000830152611e5881611e1c565b9050919050565b7f4e487b7100000000000000000000000000000000000000000000000000000000600052602260045260246000fd5b60006002820490506001821680611ea657607f821691505b60208210811415611eba57611eb9611e5f565b5b50919050565b7f414c524541445920504149440000000000000000000000000000000000000000600082015250565b6000611ef6600c836116d8565b9150611f0182611ec0565b602082019050919050565b60006020820190508181036000830152611f2581611ee9565b9050919050565b6000611f37826114fd565b9150611f42836114fd565b9250827fffffffffffffffffffffffffffffffffffffffffffffffffffffffffffffffff03821115611f7757611f76611988565b5b828201905092915050565b7f544f4f204541524c590000000000000000000000000000000000000000000000600082015250565b6000611fb86009836116d8565b9150611fc382611f82565b602082019050919050565b60006020820190508181036000830152611fe781611fab565b9050919050565b7f4d555354204245204556454e54204f574e455200000000000000000000000000600082015250565b60006120246013836116d8565b915061202f82611fee565b602082019050919050565b6000602082019050818103600083015261205381612017565b9050919050565b6000612065826114fd565b9150612070836114fd565b92508282101561208357612082611988565b5b828203905092915050565b6000612099826114fd565b91506120a4836114fd565b9250817fffffffffffffffffffffffffffffffffffffffffffffffffffffffffffffffff04831182151516156120dd576120dc611988565b5b828202905092915050565b60006020820190506120fd60008301846116be565b9291505056fea26469706673582212205aa2415aa9426640ebf18bd5b0504bfc8a0257338c92458bb68ce0d1ca4a865a64736f6c63430008090033",
    "linkReferences": {},
    "deployedLinkReferences": {}
}